:020000040800F2
:100000000000032055160008111000081310000806
:10001000A5160008A5160008A51600080000000097
:1000200000000000000000000000000015100008A3
:100030001710000800000000191000081B1000082D
:10004000A5160008A5160008A51600082B10000824
:10005000A5160008A5160008A5160008A516000894
:10006000A5160008A5160008A5160008A516000884
:10007000A5160008A5160008A5160008A516000874
:10008000A5160008A5160008A5160008A516000864
:10009000A5160008A5160008A5160008A516000854
:1000A000A5160008A5160008A5160008A516000844
:1000B000A5160008A5160008A5160008A516000834
:1000C000A5160008A5160008A5160008A516000824
:1000D0001F100008A5160008A5160008A5160008A0
:1000E000A5160008A5160008A5160008A516000804
:1000F000331000082F100008A5160008A5160008E8
:10010000A5160008A5160008A5160008A5160008E3
:10011000A5160008A5160008A5160008A5160008D3
:10012000A5160008A516000825100008A516000849
:0C013000A5160008A5160008A51600087A
:1001400010B5054C237833B9044B13B10448AFF311
:1001500000800123237010BD30010020000000004A
:100160004040000808B5034B1BB103490348AFF3F7
:10017000008008BD0000000034010020404000085D
:1001800053B94AB9002908BF00281CBF4FF0FF31FE
:100190004FF0FF3000F072B9ADF1080C6DE904CEFC
:1001A00000F006F8DDF804E0DDE9022304B0704752
:1001B0002DE9F047089E04468846002B4BD18A4221
:1001C000154667D9B2FA82F24AB1C2F1200701FAA4
:1001D00002F320FA07F7954047EA030894404FEAF4
:1001E000154E230CB8FBFEF71FFA85FC0EFB178893
:1001F00043EA084307FB0CF1994209D9EB1807F1D0
:10020000FF3080F01B81994240F21881023F2B445D
:100210005B1AA4B2B3FBFEF00EFB103344EA0344B6
:1002200000FB0CFCA44509D92C1900F1FF3380F028
:100230000781A44540F2048102382C4440EA07407B
:10024000A4EB0C0400271EB1D4400023C6E90043F0
:100250003946BDE8F0878B4209D9002E00F0EB80CB
:100260000027C6E9000138463946BDE8F087B3FAF1
:1002700083F7002F47D18B4202D3824200F2FA80EB
:10028000841A61EB030301209846002EE0D0C6E9F2
:100290000048DDE702B9FFDEB2FA82F2002A40F040
:1002A0008F80491B4FEA154E1FFA85F80127B1FBD5
:1002B000FEFC230C0EFB1C1143EA014308FB0CF16E
:1002C000994207D9EB180CF1FF3002D2994200F2A3
:1002D000CD808446591AA3B2B1FBFEF00EFB101478
:1002E00043EA044408FB00F8A04507D92C1900F1A3
:1002F000FF3302D2A04500F2B6801846A4EB0804F2
:1003000040EA0C409FE7C7F1200CBB4022FA0CFEEC
:100310004EEA030E01FA07F420FA0CF521FA0CF369
:100320004FEA1E482543B3FBF8F92C0C08FB1933A0
:100330001FFA8EFA44EA034309FB0AF49C4202FACC
:1003400007F200FA07F10BD91EEB030309F1FF30A6
:1003500080F087809C4240F28480A9F102097344B6
:100360001B1BADB2B3FBF8F008FB103345EA0344A6
:1003700000FB0AFAA24508D91EEB040400F1FF3382
:100380006BD2A24569D90238744440EA0940A0FB07
:100390000289A4EB0A044C45C2464B4654D351D0C3
:1003A000002E69D0B1EB0A0564EB030404FA0CFCDF
:1003B000FD40FC404CEA0505C6E90054002747E72C
:1003C000C2F1200320FA03F7954001FA02F021FA66
:1003D00003F34FEA154E3843010CB3FBFEF71FFA47
:1003E00085F80EFB173341EA034107FB08F38B4204
:1003F00004FA02F407D9691807F1FF3C2FD28B42A7
:100400002DD9023F2944CB1A81B2B3FBFEF00EFB7B
:10041000103341EA034100FB08F38B4207D9691806
:1004200000F1FF3C17D28B4215D902382944C91A72
:1004300040EA07473BE73746304609E70746E7E625
:100440001846FBE64145ABD2B8EB020A69EB0E0257
:1004500001381346A4E76046E9E7184695E7674682
:10046000D1E781467CE702382C4447E7ACF1020C27
:100470002B442FE7384608E73746E9E6704700BFC8
:100480004FF0B04382B0DA6C0243DA64DB6C1840A0
:100490000190019B02B070474FF0B04382B0D3F897
:1004A0004C210243C3F84C21D3F84C311840019041
:1004B000019B02B070470000F0B587B001F06EFA02
:1004C00001F074FA344A354FD2F8903043F4803357
:1004D000C2F8903003F000FC1422002101A803F0C0
:1004E000A6FD00232E48DFF8BCC01C461D461E4654
:1004F00000EBC302917951B150F83310B94244D0A6
:10050000614545D0B1F1904F01D192881643013336
:10051000202BEDD101210323029104938EB10846D3
:100520000196FFF7ADFF0846FFF7B6FF01A94FF0B0
:10053000904001F0FBFC002231464FF0904001F06A
:10054000A7FD7DB102200195FFF79AFF0220FFF77A
:10055000A3FF01A9114801F0E9FC002229460F4838
:1005600001F096FD7CB104200194FFF789FF04207F
:10057000FFF792FF01A90B4801F0D8FC00222146A9
:10058000084801F085FD07B0F0BD92881543BEE72D
:1005900092881443BBE700BF0008005800040048DD
:1005A0008C4000080008004870B50C4B88B001AAC8
:1005B00003F11806154618685968144603C4083331
:1005C000B3422246F7D119889B782180A37003F0AB
:1005D0005FFB284603F0DFF808B070BD8C410008CF
:1005E000002000F08FBB0000BFF34F8F0549064B82
:1005F000CA6802F4E0621343CB60BFF34F8F00BFC1
:10060000FDE700BF00ED00E00400FA05704710B5FB
:100610004468B4F80B30B3F5124F42D1002001F01A
:1006200085F8647B8CB94FF000531A78022A02D106
:100630001C70FFF7D9FFFFF7B7FF2146012003F039
:10064000C7FBBDE8104000F04BBD002003F063F88D
:10065000FF280446EDD038B1002001F059F80121FF
:10066000002001F023FDFAE74FF000531A78022A28
:100670000AD1187003F074F8204601F049F80121FE
:10068000002001F013FDFAE702221A70014603F080
:1006900053F8204601F03CF80121002001F006FD4E
:1006A000FAE710BD10B54FF0B04288B09368204C07
:1006B00043F40043936003F083FB1E49002000F0E5
:1006C00037F9FFF7F9FE0121084603F081FB00200E
:1006D00000F0F6FF012000F0F3FF022000F0F0FF31
:1006E000012001F015F80121002001F02DF803F0A0
:1006F000F5F9114A0021022003F09CFB69460F4BDB
:100700000F480094019303F047F904F586730293B0
:1007100004F50673039302A840F23C5304F54974B0
:100720000593049403F086FA03F0D6F908B010BDDF
:10073000BC01032044020020E53900080D06000832
:100740000F06000870474FF0FF3003F0BFBB0021D9
:10075000022003F07FBB022003F0AABB022003F0BB
:1007600021BC0000054A906A936A80B29BB298420D
:1007700000D17047916A18468BB2F8E70028004014
:10078000F0B5174B1A7882424FF0180415D11A7839
:10079000D2B25A7004FB0032527ED2B21A701822C2
:1007A00002FB0030012202741A78062A04D119B91A
:1007B0004FF0FF32C3F89420F0BD04FB00352E7ECD
:1007C0006A7E6F7E04FB0636D2B2FFB2062A7776C7
:1007D0001FBF2D7E04FB0232EDB21576DFE700BFAE
:1007E0004400002010B50D4CD4F89430013313D0E0
:1007F000FFF7B8FFD4F894308342094B3BBFD4F8DD
:1008000094101A88D4F894205218101A9A78DB7829
:100810005043D84080B210BD0020FBE744000020C8
:100820004C0100202DE9F0413D4E3E4BD6F80480AE
:100830009A68D8F8003012F4806F03D0DA6812F0AA
:10084000040FFAE79A68384D22F480629A602F7894
:100850001823FFB203FB0753DC68FFF7C3FFA04276
:1008600007D9012385F89830002318244FF0000C95
:100870001BE033890344A34239BF33890022231A82
:10088000012234BF9BB29BB285F89820EDE704FBB0
:10089000075204FB0757D168884297BFD168C2F856
:1008A0000CC0091AD1607F7EFFB2062FEFD143B989
:1008B000FFF758FFC5F894000320BDE8F04101F0B0
:1008C000E5B8012B02D8F278012A26D0013B9CB270
:1008D000D8F80030DA685207FCD5D968C9B261F49B
:1008E0009061D960114B4FF40022DA60032001F0CF
:1008F000DDF80C4B5A69120C120422435A61FFF7BF
:1009000031FF7368C5F894001A68936843F48063F4
:100910009360AFF30080BDE8F0811446D8E700BFD4
:100920004C0100200028004044000020000800582E
:1009300070B50D683E4E3F4CCA236B6253236B6209
:10094000B368616043F02003B360B36803F007034A
:10095000C3F10403D9B2E17032694FF4FE0393FA94
:10096000A3F3B3FA83F302F4FE02DA400132D2B207
:10097000A2703369C3F30E0301332380013B534359
:10098000A3F5A073CB404FF6FE72934288BF4FF69B
:10099000FF73294A98BF9BB22381136843F4002355
:1009A0001360D2F8803043F40023C2F8803000286E
:1009B00037D1224B012183F898104FF0FF31C3F853
:1009C00094100621187483F8280083F8400083F8F7
:1009D000580083F8700083F888001970AB6823F41E
:1009E0008063AB60EB68DBB263F49063EB604FF461
:1009F0000023D360032001F059F863681A689368F4
:100A000043F48043936063681B68FF2203215A62AA
:100A10000846002200F0E4FF0320BDE8704001F02A
:100A200013B8EB685B05EED5032001F02FF8EAE779
:100A3000002800404C01002000080058440000201D
:100A40002DE9F0418046EFF3108572B6234C244E19
:100A5000032001F007F867683B68CA225A625322F4
:100A60005A62182303FB08631B7C022B24D100214C
:100A70004046FFF785FE3378DBB2062B27D1194BB2
:100A80009A683B6812F4806F03D0DA6812F0040FA2
:100A9000FAE79A6822F480629A60DA685207FCD515
:100AA000DA68D2B262F49062DA600F4B4FF400223F
:100AB000DA60032000F0FAFF63681B68FF225A62C5
:100AC000032000F0C1FF85F31088BDE8F081727843
:100AD0009A42F1D0FFF7A6FEEEE700BF4C010020DE
:100AE0004400002000280040000800582DE9F84389
:100AF0004B4C182303FB004305461B7C022B0F467F
:100B000001D1FFF79DFFEFF3108872B6032000F0CC
:100B1000A9FF444A53681B68CA211826596206FB7C
:100B2000054953215962022389F81030C9F80C7025
:100B3000C9F808702378DBB2062B17461BD1227840
:100B4000D2B26270257089F819304FF0FF33C4F8C3
:100B500094300020237862789A425AD0FFF762FEE0
:100B60007B681B68FF225A62032000F06DFF88F348
:100B70001088BDE8F883FFF735FED9F80C30034440
:100B8000C9F80C30D9F80C10237806FB0343DB6856
:100B9000994223D32378DBB206FB0342527ED2B2C2
:100BA000062A04D006FB0242D268914212D21821D2
:100BB00001FB0342527ED2B2062A1CBF01FB024156
:100BC0000D76182101FB05467276337601FB03434F
:100BD0005D76BFE706FB03435B7EDCE72278237884
:100BE000D2B29A4206FB02F30FD02344197EC9B257
:100BF00006FB0146757689F8192089F818101D76CC
:100C00002378DBB263702570A4E789F819202344A8
:100C1000F5E7182303FB0544E368181AE0609FE733
:100C2000440000204C010020104700002DE9F84F3F
:100C3000EFF3108772B62A4E73681B684FF0CA0B29
:100C40004FF05308C3F824B0C3F824809A6822F404
:100C500080629A60234A14781825E4B205FB0425C3
:100C6000297C02292FD1D5F804A0D5F8149092F848
:100C700098301BB3697CC9B2012919D12046FFF70E
:100C80007FFD87F31088A9682046FFF72FFF736860
:100C90001B685246C3F824B02146C3F82480484656
:100CA000FFF7C2FF73681B68FF225A62BDE8F88F26
:100CB00087F310882046FFF7C3FEE8E7FFF7B2FD91
:100CC00087F31088EEE7DA685207FCD5DA68D2B20B
:100CD00062F49062DA60044B4FF40022DA60EFE7CE
:100CE0004C01002044000020000800584FF0B043A1
:100CF00082B0DA6C0243DA64DB6C18400190019B2D
:100D000002B0704790B90A4B0A4918614FF4E132BA
:100D1000C3E900120C22C3E9020098615A6198628B
:100D20004FF400421846DA6102F03AB9704700BF4A
:100D3000580100200038014010B9024801F02EBBD4
:100D4000704700BF5801002018B9024B586F00F0DF
:100D50008CBF7047580100202DE9F043064689B04A
:100D60001422002103A803F062F93268414B9A4231
:100D70007DD10220FFF7BAFF0025402302244FF067
:100D800007084FF0030903A93B48CDF81C80CDE9C3
:100D90000334CDE9055901F0C9F82046FFF7A6FF55
:100DA000802703A93448CDF81C80CDE90374CDE930
:100DB000055901F0BBF80120FFF798FF4FF40063DD
:100DC000CDE90334CDE905494FF0B04403A94FF014
:100DD0009040CDF81C8001F0A9F8D4F8883023F0B9
:100DE000030343F00103C4F88830236E43F48043C7
:100DF0002366236E03F480432A460F2102932420A6
:100E0000029B00F0EDFD242000F01EFEA36C43F0D9
:100E10000203A364A36C03F002030193019BA36C80
:100E200043F00403A364A36C144C03F00403009385
:100E3000009B134BC4F8AC504FF00F08C4E9277562
:100E400004F18C07C4E9233838461023C4E925355A
:100E5000C4E9295500F062FE3A2077672A464146E8
:100E6000C4F8B46000F0BCFD3A2000F0EDFD09B01C
:100E7000BDE8F0830038014000040048580100201C
:100E8000440402400268044B9A4203D1034B1B689E
:100E900003B11847704700BF00380140C01300205D
:100EA0004FF0B04407B500F058FDD4F894305A0123
:100EB00013D5D4F89430DB000FD401F0EFF801F033
:100EC000EDF8D4F8903043F48033C4F89030D4F87F
:100ED000903023F48033C4F890304FF0B0443F2278
:100EE000236D43F480132365236D03F48013019372
:100EF000019B3F4B9A609A615A6842F47C125A6097
:100F00005A6942F47C125A615A6842F03F025A60B0
:100F10005A6942F03F025A61364BC4F89C30D4F80B
:100F20009C3023F47C5343F49053C4F89C3001F07C
:100F3000B5F801F0B3F8D4F8903043F00103C4F8E9
:100F40009030D4F890309807FBD5D4F8943023F43F
:100F5000404343F48043C4F89430D4F8943023F0F1
:100F60000103C4F89430D4F8983043F00103C4F876
:100F700098304FF0B044D4F898309907FBD5D4F8A6
:100F8000883023F04063C4F888301B4BD3F88020AE
:100F90000022C3F88020D3F8902002F05002C3F85A
:100FA000902001F07BF801F079F8D4F890301348E4
:100FB00023F4407343F48073C4F89030D4F8903035
:100FC00043F40043C4F890300D4C046047F6FF73BF
:100FD0000F22C0E9022301F072F9A36823F007038E
:100FE000A360FFF75FFB4FF0FF3002F06FFFFAE7FF
:100FF000000C0058FECAFECA000800584402002037
:10100000002800400020704782B0019002B0704775
:101010007047FEE770477047704700F0ADBC002096
:10102000FFF78ABE0020FFF78FBEFFF7FFBD00F07D
:1010300089BA00F0E7BA10B504464068083002F0FB
:10104000B7F810B10123237010BD2070FCE710B178
:10105000012803D07047012002F010BF02F01CBF2E
:1010600000B589B00A4A029200230822CDE9003275
:10107000CDE90533CDE90333A0228021184602F0E3
:10108000BBF804490E2009B05DF804EB02F0B0B9DA
:10109000A74100080400002008B50D4B1B685A1C2E
:1010A0000DD00C4A0C4812680370190A1B0C83708F
:1010B000C270130A120C41700371427108BD002006
:1010C00002F01EFE054B002808BF1846F6E700BFD9
:1010D0008075FF1F8475FF1F68020020AF41000864
:1010E00070B56C4B98B00CAA03F128061546186829
:1010F0005968144603C40833B3422246F7D118682E
:101100001B792371644B206009A909936348644BE0
:101110000A9302F069FB0121022002F059FE614AA4
:1011200000210120002402F085FE284602F025FB64
:10113000ADF8184002F0CEFAFFF7AEFF06210246E6
:10114000204602F075FA4EF66E530A93564B09AAE2
:101150001B68099306212E2002F06AFA534A1021D7
:10116000182002F065FA524A1021082002F060FAB5
:101170001821012002F088FA08AD02F063F90DF1A0
:101180001E030093072207AB21460195012002F0C0
:10119000EDF8484BBDF81E10009322460723BDF81A
:1011A0001C0002F015FA06ABBDF820100093224691
:1011B0000223BDF81C0002F00BFA204602F078F87A
:1011C0003D4B04940121CDE9024310220823CDE9CF
:1011D000003208462346224602F08CF801F0BAFF9E
:1011E000364B4FF400421A610222D3F88030099244
:1011F000334A12780A92052ADBB20FD84FF0005317
:101200001C70BFF34F8F2F492F4BCA6802F4E06266
:101210001343CB60BFF34F8F00BFFDE72B49097825
:101220005018834236BF9B1A0B910B9300F068FD58
:10123000294609A800F006FE00F074FDFFF72CFF18
:10124000234B42791A7202795A72C2789A72827862
:10125000DA7242781A73027801325A7343798DF840
:10126000293003798DF82830C3788DF827308378BA
:101270008DF8263043788DF82530037809AA01339C
:10128000062100208DF8243002F0D2F9FFF7E8FEA5
:1012900018B070BDB54100082000032037100008C9
:1012A0004F100008353800088075FF1FE241000824
:1012B000F24100086843000807B2010000400058EE
:1012C0000100002000ED00E00400FA05020000200B
:1012D0000400002008B54378052B01D1FFF7C0FEBC
:1012E000012008BD0021012002F0B4BD012002F060
:1012F000DFBD012002F056BE0379012B2DE9F74F27
:10130000044632D004D3032B7CD003B0BDE8F08F69
:1013100001680B78022B11D0072B1ED0012BF4D1C2
:101320005A4B00255D744FF000621A60427901311A
:10133000013A184602F070FE0574E6E7534B0122AD
:101340005A744FF000621A6042790131013A18462E
:1013500002F062FE00220274D7E702A9012301F81D
:10136000013D022001F0D8FECFE747794849494BBB
:10137000D1F888209A42FBD1444E00F0C1FC4FF0D6
:101380000008354606F1080A307CC0F10802BA426E
:1013900013D900F0C7FC3E4B4FF480629A60002FD7
:1013A000B3D0337C21683C483A461844414402F0AB
:1013B00033FE337C1F443774A7E72168504441440F
:1013C00002F02AFE354A136913F40029FBD1D5E94E
:1013D00002232968012000F0EFFC2B68D5E902BC4C
:1013E000D3E90001614508BF5845CDD108332B60D2
:1013F0002B7C85F81090A3F10802C3F10803174471
:101400009844C1E7214C237CBBB12149214BD1F841
:1014100088209A42FBD100F073FC204E2568D4E965
:101420000223D5E90001994208BF90421BD100F088
:1014300079FC174B4FF480629A60647CDCB1012C1C
:101440007FF463AF4FF0005300221A70BFF34F8F49
:101450001349144BCA6802F4E0621343CB60BFF334
:101460004F8F00BFFDE731690903FCD429460120F5
:1014700000F0A2FCD2E7204602F04DF9204602F02F
:101480004AF90121002000F011FEFAE7C8130020FC
:101490000014005800040080D013002000400058C1
:1014A00000ED00E00400FA0540BF20BF024AD36807
:1014B00043F40043D3607047000400584FF0B0433A
:1014C00007B51A6D42F480121A651B6D03F4801380
:1014D0000193019B084B1A6842F001021A601A68D6
:1014E00042F480321A602C2000F0AEFA2D2003B0B6
:1014F0005DF804EB00F0A8BA000C0058024A5368EB
:1015000023F0010353607047000C0058024B4FF466
:1015100080329A60704700BF000C0058024A53683E
:1015200023F0020353607047000C0058044B4FF443
:1015300000329A605A6822F400325A60704700BF45
:10154000000C00581E4BDA6812F0020F10B51A4654
:1015500009D15968890306D45A6842F400325A60A6
:1015600002F048FB10BDD3689B0707D453689C0367
:1015700004D4536843F400335360F1E7104CE3683C
:1015800013F0080F23460DD1626810030AD4636874
:1015900043F4002363600B4B1B6898474FF4002310
:1015A000A360DFE7DA689106DCD45A689202D9D4E6
:1015B0005A6842F400125A6002F0F0FAD2E700BF13
:1015C000000C00587002002010B5084CE3681B079F
:1015D00006D5074B1860636823F40023636010BDD1
:1015E00080474FF40023A360F9E700BF000C0058C8
:1015F00070020020024A536823F0080353607047CA
:10160000000C005838B5124CE36913F0020F254660
:1016100007D063689B0704D402F0F6FA0223A360A4
:1016200009E0EB69D80707D56B68D90704D402F045
:101630009FFA0123AB6038BD054CE3691A07FAD560
:1016400063681B07F7D402F035FB0823E7E700BF08
:10165000000C00580D4885460D480E490E4A0023DF
:1016600002E0D458C4500433C4188C42F9D30B4A56
:101670000B4C002301E013600432A242FBD300F0C4
:10168000F5F802F0A5FCFFF70BFCFEE700000320D5
:1016900004000020440000208043000830010020A6
:1016A000E4130020FEE74FF0B04382B0DA6C02434F
:1016B000DA64DB6C18400190019B02B070470000B7
:1016C000F0B587B007461422002101A802F0AFFC54
:1016D0000D4C0220FFF7E7FF0C4B04EB870433F8B7
:1016E00017506068019500260123CDE9023601A953
:1016F0000223049300F01AFC32462946606800F089
:10170000C7FC07B0F0BD00BF140000200242000873
:10171000044B054903EB800331F81010586801228F
:1017200000F0B6BC1400002002420008044B05493A
:1017300003EB800331F810105868002200F0A8BCB9
:10174000140000200242000870B586B004460E4620
:101750001422002101A802F06AFCCCB90420FFF792
:10176000A2FFD6B91B4B03EB44030125DB88CDE96F
:1017700001360223CDE90353174B03EB840401A97F
:10178000206900F0D3FB2846FFF73EFC06B070BD91
:10179000631E012BE5D80820E1E7012EF6D10D4D9F
:1017A000039605EB440301A9DB8801930B4B0293DD
:1017B000094B03EB84032C44186900F0B7FB94F940
:1017C0000C40002220460F2100F00AF9204600F0CC
:1017D0003BF9DBE702420008140000200000211062
:1017E0000B4B1A680B4BB2F1006FD3F880300DD35E
:1017F0001B0303F47F2303F10063043B9A4205D8E3
:101800001068054BC31A5842584170470020704772
:101810004071000800400058298A4494054A08B5E0
:10182000054B93601B6883F30888044B1B6898473B
:1018300030BF08BD00ED00E0007000080470000833
:1018400008B5FFF7CDFF4FF0005328B100221A7002
:10185000BDE80840FFF7E2BF01221A70024B0722E1
:101860001A70FF225A7008BD0100002008B54FF021
:10187000B043D3F89420D10047D4D3F894309A01E0
:1018800043D4FFF7DDFF314AD2F8883043F47003C8
:10189000C2F88830002002F033FA68B14FF0B0424D
:1018A0002B4B8179C2F89C30D2F89C3023F47C53C6
:1018B00043EA0123C2F89C304FF0B042136843F46E
:1018C00080331360234B1A6822F0070242F00102B2
:1018D0001A601A6802F00702012AFAD14FF0B042EA
:1018E00013689B03FCD5936823F0030343F00203C2
:1018F00093604FF0B0439A6802F00C02082AFAD1C4
:101900001A6822F001021A6008BD4FF000531B78DC
:101910002BB9FFF765FF10B1FFF780FFB3E74FF07A
:1019200000510B785BB9FFF75BFF40B901230B70E7
:1019300003F1005307221A70FF225A70A3E74FF0F9
:1019400000531B78013B012B9BD89CE700ED00E086
:10195000FECAFECA00400058704710B5032000F0D0
:101960002DF80F20FFF74EFB044618B9FFF7F4FFE0
:10197000204610BD0124FBE7034A044913680968A7
:101980000B441360704700BFE013002034000020B8
:10199000014B1868704700BFE0130020024A5368EB
:1019A00043F0010353607047002004E0024A53688B
:1019B00043F0020353607047002004E0074AD368F5
:1019C00023F4E0631B041B0C43F0BF63000243F4E9
:1019D000003300F4E0600343D360704700ED00E0A3
:1019E000174B70B5DC68C4F30224C4F10705042D5D
:1019F00004F1040328BF04254FF0FF36062B06FA36
:101A000005F38CBF033C002421EA0303A34006FA3C
:101A100004F422EA0404002843EA0403A8BF00F106
:101A200060404FEA0313BCBF00F00F00054ADBB271
:101A3000AABF00F56140135480F8003370BD00BFA9
:101A400000ED00E014ED00E0002808DB420901236E
:101A500000F01F0003FA00F0014B43F8220070472A
:101A600000E100E000280DDB4309012200F01F0027
:101A700002FA00F02033044A42F82300BFF34F8FEC
:101A8000BFF36F8F704700BF00E100E0002809DB63
:101A90004309012200F01F0002FA00F04033024A1D
:101AA00042F82300704700BF00E100E0002809DB96
:101AB0004309012200F01F0002FA00F06033024ADD
:101AC00042F82300704700BF00E100E010490368BE
:101AD000426C8B4222F0030295BF02F180420D4915
:101AE00002F50232891898BF8264DBB20A4AC264E6
:101AF000A3F108034FF01402B3FBF2F34FF001021D
:101B000003F01C0302FA03F388BF81640365704786
:101B1000070402401C0802408008024010B5044639
:101B200000285DD001682F4B99424FF014004AD82D
:101B30002D4A0A44B2FBF0F292006264A3F207431A
:101B40002364022384F82530D4E90230034320695A
:101B50000A68034360690343A0690343E0690343E0
:101B6000206A22F4FF4222F07002034313430B6009
:101B70002046FFF7ABFFA368A16CB3F5804F04BF0D
:101B8000002363606268D3B20B60D4E91310013A9A
:101B9000032A48601FD8154A1548A0651A44013B1E
:101BA0009200012103F0030301FA03F300216265AF
:101BB000E3651160436000200123E06384F82400A2
:101BC00084F8253010BD0B4B0B44B3FBF0F39B00A6
:101BD0006364094BB4E70023C4E91533E365EAE71E
:101BE0000120EFE707040240F8FFFDBF3F8200102D
:101BF00040090240F8FBFDBF0004024090F8253088
:101C0000022B10B503D00423C363012010BD036869
:101C10001A6822F00E021A601A6822F001021A6095
:101C2000826C136823F480731360D0E9101303F0FF
:101C30001C02012393404B60D0E913325A60436D7C
:101C400033B11A6822F480721A60D0E916325A60F1
:101C5000012380F82530836B002480F8244013B1E1
:101C600098472046D2E71846D0E7016C426C0368DB
:101C700070B402F01C020E681D68042494403442C3
:101C80000ED015F0040F0BD01A6892065EBF1A68CA
:101C900022F004021A60036B4C6073B370BC1847E7
:101CA00002249440344212D015F0020F0FD01A686B
:101CB000950606D41A6822F00A021A60012380F8F9
:101CC000253000234C6080F82430C36AE5E70824FF
:101CD0009440344211D02C070FD51C6824F00E0418
:101CE0001C60012303FA02F24A60C36380F82530C6
:101CF000002380F82430436BCFE770BC70470000AE
:101D0000064B5A69002ABFBF054A9A6002F1883221
:101D10009A60BABF5869C00F002070470040005851
:101D200023016745044B5A6942F000425A615869E1
:101D3000C043C00F704700BF00400058F8B50546CB
:101D4000FFF726FE1A4E044637463369D9031AD4E4
:101D50003369DA0744BF012232614CF2FA321A4089
:101D6000BB6903F08043134313F040421EBFB969BF
:101D70000A43BA6133F040410CD00D4A11610D4A5B
:101D80000120536005E0FFF703FE001BA842DCD3EF
:101D90000320F8BD002BF2D1054E306910F48020ED
:101DA000F7D0FFF7F5FD001BA842F6D3F0E700BF20
:101DB00000400058740200202DE9F041184C98466C
:101DC0002378012B06460D46174626D001232370A3
:101DD0004FF47A7000236360FFF7B0FFA0B9012EC3
:101DE00016D1104A506940F0010050612F60BFF3D6
:101DF0006F8FC5F804804FF47A70FFF79FFF094A90
:101E0000536923EA0603536100232370BDE8F08180
:101E10003946284602F020F9EDE70220F6E700BF38
:101E20007402002000400058054A536923F4FF6300
:101E300043F4803343F0020343EAC000506170472B
:101E4000004000582DE9F041364C2378012B07461D
:101E5000884665D0012323704FF47A7000236360B5
:101E6000FFF76CFF0546002836D13B68042B38D1BC
:101E70002D4A536943F4803343F0040353614FF414
:101E80007A70FFF75BFF0546274B1A6891050FD55F
:101E90001A6822F400721A601A6842F400621A602A
:101EA0001A6822F400621A601A6842F400721A601A
:101EB0001D4B1A6852050FD51A6822F480621A6009
:101EC0001A6842F480521A601A6822F480521A602A
:101ED0001A6842F480621A60002323702846BDE825
:101EE000F0814FF0FF33C8F800307E68D7E9013247
:101EF0001344B3420AD93046FFF796FF4FF47A7085
:101F0000FFF71CFF50B1C8F800600546064A536948
:101F100023F4FF6323F002035361B5E70136E5E7DD
:101F20000225DBE774020020004000582DE9F04F45
:101F3000554AD1F8008000234FF00F0938FA03F416
:101F400001D1BDE8F08F012404FA03FA1AEA08056A
:101F500000F08F804C6824F0100BBBF1020F11D100
:101F6000DF0800EB870703F0070C3E6A4FEA8C0C92
:101F700009FA0CFE26EA0E0E0E6906FA0CF646EA7F
:101F80000E063E624FEA430E0327066807FA0EF775
:101F9000FF4304F0030C3E400CFA0EFC0BF1FF3B38
:101FA0004CEA0606BBF1010F066011D8866806EA06
:101FB000070BCE6806FA0EFC4CEA0B0686604668F4
:101FC00026EA0A0AC4F300169E4046EA0A0646605C
:101FD000C66837408E6806FA0EF63743E600C760DB
:101FE00047D523F0030707F1804707F5803703F053
:101FF000030CBE684FEA8C0C09FA0CFEB0F1904F4E
:1020000026EA0E0E37D0214EB04236D006F5806655
:10201000B04234D006F58066B04232D006F5806614
:10202000B04214BF0726042606FA0CF646EA0E064E
:10203000BE60D2F88060EF4314F4803F0CBF3E4096
:102040002E43C2F88060D2F8846014F4003F0CBFC5
:102050003E402E43C2F88460166814F4801F0CBF03
:102060003E402E4316605668A40254BF3E402E43A5
:102070005660013362E70026D6E70126D4E7022640
:10208000D2E70326D0E700BF00080058000400484C
:102090000AB181617047816270470000024A13688B
:1020A00043F4807313607047000400580D4B10B563
:1020B0005B690C4628B99A0507D500F01FF820B1D6
:1020C00010BD9B0501D400F011F8074A1369012CDB
:1020D00023F00403136101D130BFF1E740BF20BFFB
:1020E00020BFEDE70004005800ED00E0024A13684D
:1020F00043F4804313607047000400580D4B0E49B1
:102100001A6822F480421A600C4A1268B2FBF1F19C
:1021100032224A431946586910F4007F00D032B980
:102120004B6913F4007F14BF032000207047013A6D
:10213000F1E700BF0004005840420F0030000020CB
:102140004FF0B043186800F0F000B02828BFB0206E
:10215000704700004FF0B04208B5936813F00C03CD
:1021600007D1FFF7EDFF1F4BC0F3031053F820001A
:1021700008BD042B33D0082B07D113681A4813F479
:10218000801F1A4B08BF1846F2E7D36803F0030319
:10219000022B22D0032B18D11368134813F4801F8D
:1021A000124B18BF03464FF0B042D068D168D268D6
:1021B000C0F306205843C1F302130133B0FBF3F020
:1021C000530F0133B0FBF3F0D2E7FFF7B9FF054B34
:1021D000C0F3031053F82030E5E7034BE3E7024870
:1021E000C6E700BF144200080024F4000048E801DC
:1021F00008B5FFF7AFFF4FF0B043044A9B68C3F345
:10220000031352F82330B0FBF3F008BD544200082A
:1022100008B5FFF7EDFF4FF0B043054A9B68C3F3E5
:10222000022352F8233003F01F03D84008BD00BF3B
:10223000F442000808B5FFF7DBFF4FF0B043054A52
:102240009B68C3F3C22352F8233003F01F03D84026
:1022500008BD00BFF44200087047026838B5D36873
:1022600023F0A003D3600446FFF792FB05462368E2
:10227000DB689B0601D5002038BDFFF789FB401BBA
:10228000B0F57A7FF3D90320F6E738B50368DA684A
:102290005206044601D5002038BD4FF0FF32DA6007
:1022A000FFF776FB05462368DB685B06F3D4FFF790
:1022B0006FFB401BB0F57A7FF5D90320ECE738B50A
:1022C0000446D8B190F8213003F0FF021BB980F822
:1022D0002020FFF7C1FF022384F821302368CA229F
:1022E0005A6253225A622046FFF7CFFF2368054601
:1022F00030B1FF225A62042384F82130012538E0EE
:102300009A68206922F4E00222F040029A60626832
:1023100099680243A06902430A439A60E2681A611D
:102320001A69A168606942EA01421A61DA6822F01A
:102330008002DA60DA6C22F00302DA64E269D96CB6
:1023400002430A43DA649B689B060CD42046FFF7DD
:1023500084FF40B12368FF225A62042384F82130AD
:1023600084F82050CAE72368FF225A62012384F8C8
:102370002130284638BD0268136823F49073136037
:10238000936823F0805323F0010393602023C0F867
:1023900084300023C3667047704700000268D36929
:1023A000116870B540F60F052B42044690680BD1BA
:1023B0009E0640F183808D0601D4C6007ED5E36E73
:1023C000002B75D020466DE0584E064002D1584D86
:1023D000294273D0DD0709D5CD0507D50125156242
:1023E000D4F8885045F00105C4F888509D0709D5F8
:1023F000C50707D502251562D4F8885045F00405B5
:10240000C4F888505D0709D5C50707D504251562AE
:10241000D4F8885045F00205C4F888501D070AD545
:102420008D0600D43EB108251562D4F8885045F0D9
:102430000805C4F888501E050AD54D0108D54FF48B
:1024400000651562D4F8882042F02002C4F8882084
:10245000D4F8882062B39E0607D58D0601D4C0004B
:1024600003D5E36E0BB1204698472268D4F8885014
:1024700092685106204602D415F0280519D0FFF7BE
:102480007AFF23689A6852060FD59A68A06F22F0E7
:1024900040029A6048B1274B8363FFF7AFFB38B126
:1024A000A06F836BBDE8704018472046FFF774FFAC
:1024B00070BDFFF771FFC4F88850F9E7DE0209D557
:1024C000450207D54FF4801320461362BDE87040E3
:1024D00000F096BD1E0605D50D0601D4000201D5FB
:1024E000236F6DE75E060ED54D060CD5136823F0FD
:1024F000400313602023C4F8803000232367204664
:10250000FEF7C0FCD4E7180206D54A0004D52046E1
:10251000BDE8704000F076BDDB01C9D50029C7DAFF
:102520002046BDE8704000F06CBD00BF0100001007
:10253000200100043925000808B5806A0023A0F8AE
:102540005E30A0F85630FFF727FF08BD00000000FE
:102550000368C16982682DE9F048044600691D6876
:10256000024360690243606E0A430243AC4828405C
:1025700002431A605A68E06822F4405202435A60EB
:10258000A84AA06993421CBF226A10439A6822F0AD
:102590006E4222F4306202439A60DA6A606A22F084
:1025A0000F020243DA62A04A93421AD14FF0B043BD
:1025B0009E4AD3F8883003F00303B1F5004FD35C93
:1025C00003F1FF3340F03483072B00F22E83DFE862
:1025D00013F02A0251022C0398022C032C032C0323
:1025E000B102904A934240F0EF834FF0B043D3F8EA
:1025F000883003F44063B3F5806F00F0AC800AD8F4
:10260000C3B3012200234FF00111C4E91A13236759
:102610001046BDE8F088B3F5006F65D0B3F5406FA4
:10262000EFD1002800F0E780012800F0E8800228C0
:1026300000F0E980032800F0EA80042800F0EB8035
:10264000052800F00B81062800F00C81072800F017
:102650000D81082800F00E81092800F00F810A285A
:1026600000F010810B284FF0080114BF4FF4004018
:10267000802058E0FFF7CCFD636AFBB1012B1FD02F
:10268000022B1FD0032B1FD0042B1FD0052B1FD0D4
:10269000062B1FD0072B1FD0082B1FD0092B1FD0B4
:1026A0000A2B1FD00B2B14BF01234FF48073002182
:1026B000B0FBF3F0002836D10246A3E70123F6E78A
:1026C0000223F4E70423F2E70623F0E70823EEE70A
:1026D0000A23ECE70C23EAE71023E8E72023E6E7E8
:1026E0004023E4E78023E2E700286BD001286CD088
:1026F00002286DD003284FF002016CD004286CD062
:1027000005286CD006286CD007286CD008286CD01F
:1027100009286CD00A286CD0454B4FF224420B2874
:1027200014BF18461046626802EB420383423FF62C
:1027300068AFB0EB023F3FF664AF082900F270814A
:10274000DFE811F0A4006E01E0006E011C016E01D3
:102750006E016E013501FFF7FDFC636AE3B1012BE9
:102760001CD0022B1CD0032B1CD0042B1CD0052BFF
:102770001CD0062B1CD0072B1CD0082B1CD0092BDF
:102780001CD00A2B1CD00B2B14BF01234FF48073D9
:10279000B0FBF3F004218DE70123F9E70223F7E70B
:1027A0000423F5E70623F3E70823F1E70A23EFE71D
:1027B0000C23EDE71023EBE72023E9E74023E7E7CD
:1027C0008023E5E702211A48ADE702211948AAE76C
:1027D00001461948A7E71948A5E71948A3E719488A
:1027E000A1E719489FE719489DE719489BE7194851
:1027F00099E7194897E708214FF4004093E708212B
:102800004FF480408FE708214FF400508BE70821F8
:1028100041F2555087E708214FF4805083E700BF0D
:10282000F369FFCF008000400038014014430008E6
:102830000024F40000127A0000093D00AAB028002C
:1028400080841E00006A18005558140040420F0092
:1028500020A1070090D0030048E80100082140F6BD
:10286000CC4060E7082140F6AA205CE708214FF43D
:10287000006058E701464FF4806054E708214FF4A8
:10288000007050E708214FF480704CE7FFF7C0FC60
:10289000636A002B00F08980012B72D0022B72D06A
:1028A000032B72D0042B72D0052B72D0062B72D062
:1028B000072B72D0082B72D0092B72D00A2B72D042
:1028C0000B2B72D14FF4807200230021FDF758FCCE
:1028D00065680F0247EA10670602680816EB000BEE
:1028E00047F1000C2A46002358466146FDF748FC94
:1028F0000022A54BA0F5407199423FF682AE2368B5
:10290000D8607FE6636A002B36D0012B16D0022BED
:1029100016D0032B16D0042B1ED0052B1ED0062B51
:102920001ED0072B20D0082B20D0092B20D00A2B1B
:1029300020D00B2B20D1954E002706E0944EFBE7CC
:10294000944EF9E78CA7D7E90067550870194FF046
:10295000000347F10001C9E78F4EEDE78F4EEBE72B
:1029600087A7D7E90067F0E78D4EE5E78D4EE3E7EF
:102970008D4EE1E78D4EDFE78D4EDDE7FFF7EAFB99
:1029800086E70222A0E704229EE706229CE70822AF
:102990009AE70A2298E70C2296E7102294E7202271
:1029A00092E7402290E780228EE701228CE7636A5B
:1029B0009BB3012B16D0022B17D0032B18D0042B5E
:1029C00018D0052B19D0062B19D0072B19D0082B9E
:1029D0001AD0092B1BD00A2B1CD00B2B1DD14FF466
:1029E0000046A9E74FF48006A6E74FF40016A3E7D8
:1029F000704EA1E74FF480169EE76F4E9CE76F4E36
:102A00009AE74FF4002697E74FF4802694E74FF4B7
:102A1000003691E74FF480368EE74FF400068BE7DF
:102A20000122002065E7FFF705FC616A00296BD0F1
:102A300001296BD002296BD003296BD004296BD0FC
:102A400005296BD006296BD007296BD008296BD0DC
:102A500009296BD00A296BD00B2914BF01224FF42E
:102A600080726168B0FBF2F24B0803EB4203B3FBE8
:102A7000F1F31FE078B301282FD002282FD00328CC
:102A80002FD004282FD005282FD006282FD0072894
:102A90002FD008282FD009282FD00A282FD0434B19
:102AA000474A0B2814BF18461046636800EB5300D2
:102AB000B0FBF3F39BB20022A3F110004FF6EF71CD
:102AC00088423FF69EAD23F00F012068C3F3420316
:102AD0000B43C36096E53548E7E72C48E5E73948FE
:102AE000E3E73948E1E73948DFE73948DDE73948C6
:102AF000DBE73948D9E73948D7E73948D5E73948D6
:102B0000D3E7FFF727FB90E70122AAE70222A8E715
:102B10000422A6E70622A4E70822A2E70A22A0E7E9
:102B20000C229EE710229CE720229AE7402298E799
:102B3000802296E7002857D0012858D0022859D083
:102B400003285AD004285BD005285CD006285DD025
:102B500007285ED008285FD0092860D00A2861D0F5
:102B60000B2814BF4FF480334FF48073606803EB7D
:102B70005003B3FBF0F39DE700AAB028000000006B
:102B80000055581400000000FFFC0F000024F40062
:102B90000000127A0000093D0080841E00006A18BF
:102BA0000040420F0020A1070090D0030048E80138
:102BB000000024F40055150000CC0C0000AA0A0007
:102BC00048E8010000127A005461510000093D00FC
:102BD00000D43000AAB0280080841E0040420F00BC
:102BE00020A1070090D003004FF48033BEE74FF4DC
:102BF0000043BBE74FF48043B8E742F6AA23B5E7AA
:102C00004FF40053B2E741F69813AFE741F2545343
:102C1000ACE74FF48053A9E74FF40063A6E74FF405
:102C20008063A3E74FF40073A0E70122002343E78A
:102C3000072B00F2CD80DFE803F0042ACB6DCBCB6D
:102C4000CB86FFF7F7FA636A002B66D0012B66D0BC
:102C5000022B66D0032B66D0042B66D0052B66D0E2
:102C6000062B66D0072B66D0082B66D0092B66D0C2
:102C70000A2B66D00B2B14BF01234FF480736268BC
:102C8000B0FBF3F303EB5203B3FBF2F320E058B3D2
:102C900001282BD002282BD003282BD004282BD09E
:102CA00005282BD006282BD007282BD008282BD07E
:102CB00009282BD00A282BD0474B4FF224420B284F
:102CC00014BF18461046636800EB5300B0FBF3F3E3
:102CD0009BB20022A3F110004FF6EF7188423FF63D
:102CE00090AC2168CB608DE43B48ECE73B48EAE7D9
:102CF0003B48E8E73B48E6E73B48E4E73B48E2E798
:102D00003B48E0E73B48DEE73B48DCE73B48DAE7A7
:102D10003B48D8E7FFF71EFA95E70123AFE7022308
:102D2000ADE70423ABE70623A9E70823A7E70A23B7
:102D3000A5E70C23A3E71023A1E720239FE7402367
:102D40009DE780239BE7F0B101281FD0022820D007
:102D5000032821D0042822D0052823D0062824D0F7
:102D6000072825D0082826D0092827D00A2828D0C7
:102D70000B2814BF4FF400438023606803EB50031B
:102D8000B3FBF0F3A4E74FF40043F6E74FF48043BE
:102D9000F3E74FF40053F0E741F25553EDE74FF4FA
:102DA0008053EAE740F6CC43E7E740F6AA23E4E79E
:102DB0004FF40063E1E74FF48063DEE74FF4007304
:102DC000DBE74FF48073D8E7B1F5004F3FF42DAF48
:102DD000012200237EE700BF0024F40000127A00E5
:102DE00000093D00AAB0280080841E00006A180077
:102DF0005558140040420F0020A1070090D0030056
:102E000048E80100836ADA0710B506D50168C46A8C
:102E10004A6822F4003222434A609C0706D50168C2
:102E2000046B4A6822F4803222434A60590706D56F
:102E30000168446B4A6822F4802222434A601A07E0
:102E400006D50168846B4A6822F4004222434A6036
:102E5000DC0606D50168C46B8A6822F480522243DE
:102E60008A60990606D50168046C8A6822F40052CB
:102E700022438A605A060FD50168446C4A6822F4DE
:102E800080122243B4F5801F4A6005D14A68846CE1
:102E900022F4C00222434A601B0606D50268C16CB8
:102EA000536823F400230B43536010BD2DE9F04118
:102EB000069D04460F46164698462168CA6937EAB9
:102EC00002030CBF01220022B24201D000201AE00E
:102ED000681CF3D0FEF75CFDA0EB0800A842206858
:102EE000036800D88DB923F4D0730360836823F09E
:102EF000010383602023C4F88030C4F884300023A9
:102F000084F87C300320BDE8F0815A07D5D5C36929
:102F10001B05D2D54FF400630362036823F4D0731A
:102F20000360836823F0010383602023C4F88030AA
:102F3000C4F88430C4F88830E1E773B5044600264D
:102F4000C0F88860FEF724FD23681B681A07054651
:102F500017D423681B685B070AD56FF07E43009384
:102F600000222B464FF480012046FFF79FFFA0B9B7
:102F700020230020C4F8803084F87C00C4F884301A
:102F80000CE06FF07E430093324603464FF400118D
:102F90002046FFF78BFF0028DBD0032002B070BD76
:102FA00010B5044650B3D0F880301BB980F87C309F
:102FB000FDF7D2FE22682423C4F88030136823F082
:102FC000010313602046FFF7C3FA012816D0A36A55
:102FD00013B12046FFF716FF23685A6822F4904287
:102FE0005A609A6822F02A029A601A6842F0010236
:102FF00020461A60BDE81040FFF79FBF012010BDBA
:10300000704770477047000013B54378FF2B09D114
:10301000B0F8033040F60142934205D040F6174223
:10302000934220D000201CE01349B0F807204B88C1
:1030300001339A4203D100238DF8043006E0CB8897
:1030400001339A42EED101248DF8044000F10D03C2
:103050000093B0F80B308DF805306846FEF74CF958
:10306000012002B010BD044A137A1BB10023137271
:103070000323E1E71846F4E7E00000202DE9F043E0
:10308000224E234D234887B000F088F83146009542
:1030900008230122022000F0F3F92B46002433F824
:1030A000020B059301274FF00A094FF0040843462D
:1030B00006F11002CDE90394CDE90147CDF8008077
:1030C000022100F02BFA2B4606F1200233F8040B04
:1030D0000194CDE9044320230093CDE902493B4606
:1030E000022100F01BFA2B4606F1300233F8060BE2
:1030F0000221CDE90473CDE90279CDE900841423DE
:1031000000F00CFA2C7207B0BDE8F08318430008F9
:10311000E00000200930000813B5064A94881088A2
:103120000123137200910022214600F051FA02B0EF
:1031300010BD00BFE0000020704770477047704727
:1031400070477047704770477047704770477047C7
:103150007047000008B5104B00221A751A76FFF769
:10316000EBFFFFF7EAFFFFF7E9FFFFF7E8FFFFF7E5
:10317000E7FFFFF7E6FFFFF7E5FFFFF7E4FFFFF7E5
:10318000E3FFFFF7E2FFFFF7E1FFFFF777FFFFF74E
:10319000DFFFFFF7DCFF08BDEC000020034A137DD2
:1031A00042F8230001331375704700BFEC00002084
:1031B00070B54378FF2B044606D1B0F8033003F412
:1031C0007F43B3F5406F04D02046BDE87040FEF762
:1031D00081B8084E0025327DEBB29A42F4D956F8F8
:1031E00023302046984701350028F4D0023818BF14
:1031F000012070BDEC0000202DE9F04FCBB04FF066
:1032000000099DF85C410094009D9DF854618DF883
:10321000280005F109070AAC3744E519ADF8291073
:10322000ADF82B208DF82D3032469DF8503156994F
:1032300001950CA806F1080A8DF82E308DF82F6044
:103240008DF80F9000F063FA009B04F80A3004EB4D
:103250000A0B1A4658990BF1010000F058FA009B2E
:10326000019A093633441D46BDF86431E353BDF875
:10327000683153804946182204A800F04AFA0B4BE3
:1032800004930DF10F0801230435494604A8069460
:10329000CDE90758099300F0F7FA4845ACBF98F814
:1032A0000000FF204BB0BDE8F08F00BF3F0083005F
:1032B00070B5C8B000258DF820001822294602A854
:1032C0008DF8075000F025FA094B02930DF1070421
:1032D000012308AE294602A80496CDE905340793D8
:1032E00000F0D2FAA842ACBF2078FF2048B070BDF1
:1032F0003F00850070B5C8B000268DF823309DF8DA
:1033000030318DF824309DF834318DF825309DF81A
:1033100038318DF826304F9B8DF820008DF8211024
:103320008DF82220CDF8273018229DF840318DF8F5
:103330002B30314602A88DF8076000F0EAF90A4BFD
:1033400002930DF107050C23CDE9053508AC0123E7
:10335000314602A80494079300F096FAB042ACBF3D
:103360002878FF2048B070BD3F0086002DE9F0416D
:10337000C8B080460F4616460021072268461D4603
:1033800000F0C7F91822002102A88DF820808DF8DE
:1033900021708DF8226000F0BCF9144B02930323D6
:1033A000059308AC0723002102A80494CDF818D097
:1033B000079300F069FA002816DB9DF8000080B939
:1033C000009A9DF80330C2F30F222A809DF8042052
:1033D00043EA02234E9A1380019B4F9AC3F30F23B3
:1033E000138048B0BDE8F081FF20FAE73F008A0073
:1033F000F0B5C9B000268DF82000024604460DF154
:1034000021008DF8076000F082F91822314602A8E9
:1034100000F07FF90A4B02930DF10705012308AF75
:103420000134314602A80497CDE90545079300F021
:103430002BFAB042ACBF2878FF2049B0F0BD00BFE6
:103440003F008E0010B5002488B01822214602A843
:103450008DF8074000F05DF9084B02930DF107036A
:1034600006932146012302A8079300F00DFAA0421B
:10347000ACBF9DF80700FF2008B010BD3F00010160
:103480002DE9F04F0128C9B004468A469146984676
:1034900039D002280CBF1127012701AD03220021DA
:1034A000284608AE00F035F9012C34702DD0022CDE
:1034B0002DD1102406EB070B224651460DF12100B9
:1034C00000F025F906F80790182200218BF80180FA
:1034D00002A800F01EF9104B0293033403230021CD
:1034E00002A80496CDE90545079300F0CDF9002820
:1034F0000FDB287820B92B68529AC3F30F2313806F
:1035000049B0BDE8F08F0327C7E70224D2E7472080
:10351000F6E7FF20F4E700BF3F0002012DE9F0438A
:103520000129C9B006460C469146984646D0022964
:103530000CBF1327032708AD0322002101A800F0C8
:10354000E8F8012C2E80AC703AD0022C3AD110242D
:10355000EE19224649460DF1230000F0D8F89DF8F7
:10356000403125F80780B3709DF84431F3709DF821
:10357000483133719DF84C3173719DF85031B371FE
:103580001822002102A800F0C4F80A340F4B02935D
:103590000594032301AC002102A804950694079327
:1035A00000F072F900280FDB207820B92368559AC3
:1035B000C3F30F23138049B0BDE8F0830527BAE7B2
:1035C0000224C5E74720F6E7FF20F4E73F000401A7
:1035D000F0B5C9B00027ADF82000ADF822108DF885
:1035E00024204E998DF825301A460DF126001C46F0
:1035F0008DF8077000F08BF81822394602A800F009
:1036000088F80A4B02930DF10706012308AD063432
:10361000394602A80495CDE90546079300F034F930
:10362000B842ACBF3078FF2049B0F0BD3F00060182
:10363000F0B5C9B00C46002611468DF82000224690
:103640000DF122008DF821408DF8076000F05FF841
:103650001822314602A800F05CF80A4B02930DF1E3
:103660000705012308AF0234314602A80497CDE9CB
:103670000545079300F008F9B042ACBF2878FF2059
:1036800049B0F0BD3F000C0070B5C8B000258DF802
:1036900020008DF821101822294602A88DF8075025
:1036A00000F037F80A4B02930DF107040223CDE92D
:1036B000053408AE0123294602A80496079300F0BA
:1036C000E3F8A842ACBF2078FF2048B070BD00BF2F
:1036D0003F000F0010B5002488B01822214602A830
:1036E0008DF8074000F015F84FF0031302930DF129
:1036F000070306932146012302A8079300F0C4F8AC
:10370000A042ACBF9DF80700FF2008B010BD00F03C
:1037100083BC00F08CBC1FB5002204466B461146EA
:103720004FF6524000F088F914B19DF80F30237025
:103730009DF80E0004B010BD1FB508B10090042024
:1037400011B104300191C0B26B4601461A464FF6E2
:10375000544000F071F99DF80E0005B05DF804FBCF
:103760001FB500226B4611464FF65A4000F064F92F
:103770009DF80E0005B05DF804FB1FB500F10C02CA
:103780006B4621214FF6664000F056F99DF80E0079
:1037900005B05DF804FB1FB500F10C026B460F216C
:1037A0004FF6684000F048F99DF80E0005B05DF84E
:1037B00004FB000008B5437A0E3B012B014607D8F5
:1037C000074800F0C6FA0020BDE80840FDF78EBDAE
:1037D000044800F0BEFA0348BDE80840FDF782BD8A
:1037E0008C020020080100207FB50F4C4B68A062BE
:1037F0000D4604F10C00A36000F0A6F82E680B4DF6
:10380000204600F08DFA2846AE6000F089FA0123C8
:103810002B73E3682BB104A8054A029640F8102DDB
:10382000984704B070BD00BF8C0200200801002042
:10383000B537000830B5124C124D85B0104800F075
:1038400072FA08B9237B0BB905B030BD01A9204637
:1038500000F096FA01232373AB6A33B1019A039205
:1038600002A898479DF808302373237B01991BB168
:10387000084600F0FFF9E1E7204600F05EFADDE7D8
:10388000080100208C0200202DE9F7432C4FBB6873
:1038900005460BB1002098476C882B88DFF8A09074
:1038A000C4F3090444EA8324264BD5E9021298683C
:1038B000A4B2C272A0F80940D2B20C3000F0ACFB46
:1038C0000021FB690846984748F2E800FDF711FD22
:1038D0004FF00008484600F026FA50B1B8F1000F4A
:1038E000F2D0BB680BB101209847002003B0BDE8BF
:1038F000F08301A9484600F043FA019E737A0F2B2A
:103900000CD1B6F80D30A34202BF2B69F27A1A70BF
:10391000337B002BDED04FF00108DBE7B389A342F5
:103920000CD1B27A6B692869033AD2B29A42A8BF25
:103930001A466A6106F10E0100F06EFBF37AE8E7C1
:103940008C02002008010020024B0360024B03613F
:10395000704700BF193B0008593B000810B5054CE3
:103960000146204600F0F5F92046BDE81040FCF77E
:10397000EEBE00BF180100200020FCF7ECBE0000E6
:10398000034B01201872034B1B6803B118477047A3
:1039900018010020B80200207FB50E4C4B68206251
:1039A0000D46201D236000F075F82E680A4D28464C
:1039B000EE6000F0B5F9FFF7E3FF01232B746368B5
:1039C00033B1064A0192064A0396029201A898472B
:1039D00004B070BDB8020020180100207939000839
:1039E0005D39000830B5124C124D85B0104800F01A
:1039F0009AF908B9237C0BB905B030BD01A920465E
:103A000000F0BEF9012323742B6A33B1019A0392AB
:103A100002A898479DF808302374237C01991BB1B4
:103A2000084600F027F9E1E7204600F086F9DDE7D7
:103A300018010020B80200202DE9F047134C9846E9
:103A4000236881460F4692460BB100209847104DDF
:103A5000E8683A460026A0F80990C77251460C3033
:103A60002E7200F0D9FA636931463046984748F221
:103A7000E800FCF773FEE9688A7808F10800033271
:103A800000F0CAFABDE8F047FFF77ABFB80200209D
:103A900018010020024B0360024B0361704700BF16
:103AA000A93B0008DD3B000837B5094C094D084823
:103AB00000F039F908B103B030BD01A9204600F08B
:103AC0005FF92B690199186900F043F9EFE700BF2E
:103AD000DC02002000000320FDF7E6BC0C4B0D4A81
:103AE00003F120011360516003F13001916003F193
:103AF0003C01D16003F14401116103F160015161A6
:103B000003F1640170339161D361FDF7D7BC00BF4D
:103B10002C0103200000032038B50C4D0446284634
:103B200000F0FEF80A4BA2685B681A60E268DA608F
:103B300005F10802C3E90125FDF7E0FC054B226809
:103B40009A606268DA60002038BD00BF1C0A03205A
:103B500000000320DC02002008B5044B5B681B68F2
:103B600001221A72FDF7D2FC002008BD00000320DC
:103B700037B5084C084D074800F0D5F808B103B038
:103B800030BD204601A900F0FBF8AB6801989847CA
:103B9000F1E700BF1C0A0320DC020020014BDB68B8
:103BA000184700BFDC02002038B5094D04462846FE
:103BB00000F0B6F8074BA268DB68C3E90025FDF703
:103BC000ADFC054B22681A6162685A61002038BD5D
:103BD000340A032000000320DC02002008B5044B57
:103BE000DB681B6810221A72FDF7A0FC002008BDDC
:103BF00000000320024BDA68024B10681B6918476B
:103C000000000320DC02002037B5084C084D0748AF
:103C100000F089F808B103B030BD204601A900F0DA
:103C2000AFF86B6901989847F1E700BF340A0320A9
:103C3000DC02002038B50C4D0446284600F070F830
:103C40000A4800F06DF80A4BA2681B699A60E268A6
:103C5000C3E9032522681A6062685A6022695A61C2
:103C600062699A6138BD00BFA4010320DC02002014
:103C70000000032008B50146034800F06AF8034835
:103C8000BDE80840FDF7A0BCDC020020A93A00080E
:103C900010B5054C204600F043F8044B5B691C60EE
:103CA000BDE81040FDF7A6BCAC01032000000320D6
:103CB0007047000013B5074C064800F034F808B10F
:103CC00002B010BD204601A900F05AF80198FFF794
:103CD000EFFFF1E7AC01032007B5FCF781FC0223FD
:103CE00000934FF4805200230349044800F054F835
:103CF00003B05DF804FB00BF14030020F4020020B1
:103D0000054B064AD979814202D0934202D1002361
:103D100018467047083BF5E7F873FF1F0070FF1F58
:103D2000C0E900007047EFF3108272B603681B1AF7
:103D30005842584182F310887047EFF3108372B6EF
:103D40000268C1E9002001600A68516083F31088AD
:103D50007047EFF3108372B642684A6008604160B2
:103D60004A68116083F310887047EFF3108272B6CF
:103D7000D0E90013196001684B6082F31088704726
:103D800010B5EFF3108472B603680B600068FFF79C
:103D9000ECFF84F3108810BD10B59DF80840016059
:103DA0000021C0E90311C0E90511426003810477D5
:103DB00014F0020003D0581A18BF0120404210BD71
:103DC000024B0022C3E90022704700BF14130020F9
:103DD00010B5EFF3108472B641B1012903D1064B3F
:103DE0005A6802435A6084F3108810BD02494B6838
:103DF00023EA00034B60F6E714130020030C1B04B6
:103E0000A3B90004102310F07F4F04BF0002083351
:103E100010F0704F08BF0001054A4FEA107008BF4C
:103E20000433105CC3F11F03181A70470023EAE73C
:103E30005843000810B51446EFF3108172B6FFF72F
:103E4000DDFF034B03EB8000046181F3108810BD9C
:103E50001C13002030B5EFF3108572B6064B1C68BA
:103E600004431C6003EBC103D3F890200243C3F862
:103E7000902085F3108830BD1C130020EFF31081D3
:103E800072B6044A136823EA0003136081F31088B2
:103E9000704700BF3C000020EFF3108172B6034A68
:103EA00013680343136081F3108870473C000020BF
:103EB000EFF3108172B6034A53680343536081F3F2
:103EC000108870471C130020704770472DE9F0419F
:103ED000324D334F6E68304068603C46D5E9002073
:103EE0003B681340034240D0D7E901310B403CD13D
:103EF0000240D7F89000104003D1D7F89800012372
:103F00001040DB00E218D2F89410084204BF4FF0D2
:103F1000FF31C2F89410E118D1F8948008EA00004B
:103F2000FFF76CFF0123E06003FA00F028EA0000CD
:103F3000C1F89400EFF3108172B6E26893402268F2
:103F4000DB431A402260D4F898201A40C4F8982025
:103F5000D4F890201340C4F8903081F31088E368BF
:103F600004EB83031B699847B8E7FFF7ADFFEFF356
:103F7000108772B62A68236813406A68134205D115
:103F8000D4E901231A4201D1FCF7DCFB87F3108846
:103F9000FFF79BFF6E60BDE8F08100BF3C00002092
:103FA0001C13002070B5094CE368A668A0600125C9
:103FB0009D40D4E901310B4204D023EA0103C4E956
:103FC000013670BD2846FCF7BEFBF2E71C1300204B
:103FD00070B50D4E0D4CA41BA4100025A54209D1AF
:103FE0000B4E0C4C00F02CF8A41BA4100025A5428D
:103FF00005D170BD56F8253098470135EEE756F8E3
:10400000253098470135F2E77843000878430008E7
:10401000784300087C43000810B5431E0A449142CF
:1040200000D110BD11F8014B03F8014FF7E702442E
:104030000346934200D1704703F8011BF9E70000E3
:10404000F8B500BFF8BC08BC9E467047F8B500BF85
:08405000F8BC08BC9E46704755
:104058000B4B5A6942F4802230B55A61EFF3108253
:1040680072B601F50074401A0D680D500431A14272
:10407800FAD11969C903FCD482F3108830BD00BF96
:04408800004000589C
:10408C000000004801000000000000480100000092
:10409C000000004801000000000000480100000082
:1040AC000000004801000000000000480100000072
:1040BC000000004801000000000000480100000062
:1040CC000000004801000000000000480100000052
:1040DC000000004801000000000000480100000042
:1040EC000000004801000000000000480100000032
:1040FC000000004801000000000000480100000022
:10410C000000004801000000000000480100000011
:10411C000000004801000000000000480100000001
:10412C0000000048010000000000004801000000F1
:10413C0000000048010000000000004801000000E1
:10414C0000000048010000000000004801000000D1
:10415C0000000048010000000000004801000000C1
:10416C0000000048010000000000004801000000B1
:10417C0000000048010000000000004801000000A1
:10418C000000000000000000000000008C4000084F
:10419C00B8010320B40103202004040957494E5FE1
:1041AC004F54416C7AD8AC577200000000000000EC
:1041BC0000000000000000000000000000440008A7
:1041CC0000400508013A799C00F4010001FFFFFF53
:1041DC00FF4801010000123456789ABCDEF012340C
:1041EC0056789ABCDEF0FEDCBA0987654321FEDC0A
:1041FC00BA0987654321200001000200100001006C
:10420C0002000A0607000000A0860100400D030012
:10421C00801A060000350C0040420F0080841E00FE
:10422C0000093D0000127A000024F40000366E01F3
:10423C000048E801006CDC020000000000000000F7
:10424C00000000000000000001000000030000005E
:10425C000500000001000000010000000600000045
:10426C000A00000020000000020000000400000012
:10427C00080000001000000040000000800000005A
:10428C00000100000002000001000000030000001B
:10429C00020000000200000001000000020000000B
:1042AC0002000000060000000400000003000000F3
:1042BC000200000004000000040000000C000000DC
:1042CC0008000000060000000400000008000000C8
:1042DC00040000000C0000000800000006000000B4
:1042EC0004000000080000000000000000000000B6
:1042FC0000000000000000000100000002000000AF
:10430C000300000004000000010402088FE5B3D58F
:10431C002E7F4A982A487ACC20FE000019ED82AEF6
:10432C00ED214C9D4145228E22FE000019ED82AEFE
:10433C00ED214C9D4145228E23FE000019ED82AEED
:10434C00ED214C9D4145228E24FE00000403020207
:10435C00010101010000000000000000424C456317
:04436C006F72650007
:0843700040BEFF7F01000000C8
:0443780065010008D3
:04437C0041010008F3
:104380000DFF01860000000000000000000000009A
:10439000E80300000004004800040048000400484E
:1043A00000080048000C0048000C004800093D00CF
:1043B0000100000010000000FFFFFFFFFFFFFFFFF4
:1043C00000000000000000000000000000000000ED
:1043D00000000000000000000000000000000000DD
:1043E00000000000000000000000000000000000CD
:1043F00000000000000000000000000000000000BD
:1044000000000000000000000000000000000000AC
:10441000000000000000000000000000000000009C
:10442000000000000000000000000000000000008C
:10443000000000000000000000000000000000007C
:10444000000000000000000000000000000000006C
:0944500000000000000000000063
:104459000000000000000000000000000000000053
:104469000000000000000000000000000000000043
:104479000000000000000000000000000000000033
:064489000000000000002D
:10448F00000000000000000000000000000000001D
:01449F00001C
:040000050800165584
:00000001FF
